{
  "_format": "hh-sol-artifact-1",
  "contractName": "MultichainVerseExplore",
  "sourceName": "contracts/MultichainVerseExplore.sol",
  "abi": [
    {
      "anonymous": false,
      "inputs": [
        {
          "indexed": true,
          "internalType": "address",
          "name": "owner",
          "type": "address"
        },
        {
          "indexed": true,
          "internalType": "address",
          "name": "approved",
          "type": "address"
        },
        {
          "indexed": true,
          "internalType": "uint256",
          "name": "tokenId",
          "type": "uint256"
        }
      ],
      "name": "Approval",
      "type": "event"
    },
    {
      "anonymous": false,
      "inputs": [
        {
          "indexed": true,
          "internalType": "address",
          "name": "owner",
          "type": "address"
        },
        {
          "indexed": true,
          "internalType": "address",
          "name": "operator",
          "type": "address"
        },
        {
          "indexed": false,
          "internalType": "bool",
          "name": "approved",
          "type": "bool"
        }
      ],
      "name": "ApprovalForAll",
      "type": "event"
    },
    {
      "anonymous": false,
      "inputs": [
        {
          "indexed": false,
          "internalType": "uint256",
          "name": "tokenId",
          "type": "uint256"
        },
        {
          "indexed": false,
          "internalType": "address",
          "name": "receiver",
          "type": "address"
        },
        {
          "indexed": false,
          "internalType": "uint256",
          "name": "fromChainID",
          "type": "uint256"
        }
      ],
      "name": "Inbound",
      "type": "event"
    },
    {
      "anonymous": false,
      "inputs": [
        {
          "indexed": false,
          "internalType": "uint8",
          "name": "version",
          "type": "uint8"
        }
      ],
      "name": "Initialized",
      "type": "event"
    },
    {
      "anonymous": false,
      "inputs": [
        {
          "indexed": false,
          "internalType": "address",
          "name": "admin",
          "type": "address"
        }
      ],
      "name": "LogAcceptAdmin",
      "type": "event"
    },
    {
      "anonymous": false,
      "inputs": [
        {
          "indexed": false,
          "internalType": "address",
          "name": "admin",
          "type": "address"
        }
      ],
      "name": "LogSetAdmin",
      "type": "event"
    },
    {
      "anonymous": false,
      "inputs": [
        {
          "indexed": false,
          "internalType": "address",
          "name": "oldadmin",
          "type": "address"
        },
        {
          "indexed": false,
          "internalType": "address",
          "name": "newadmin",
          "type": "address"
        }
      ],
      "name": "LogTransferAdmin",
      "type": "event"
    },
    {
      "anonymous": false,
      "inputs": [
        {
          "indexed": false,
          "internalType": "address",
          "name": "to",
          "type": "address"
        },
        {
          "indexed": false,
          "internalType": "uint256",
          "name": "tokenId",
          "type": "uint256"
        }
      ],
      "name": "Mint",
      "type": "event"
    },
    {
      "anonymous": false,
      "inputs": [
        {
          "indexed": false,
          "internalType": "uint256",
          "name": "tokenId",
          "type": "uint256"
        },
        {
          "indexed": false,
          "internalType": "address",
          "name": "receiver",
          "type": "address"
        },
        {
          "indexed": false,
          "internalType": "uint256",
          "name": "toChainID",
          "type": "uint256"
        }
      ],
      "name": "Outbound",
      "type": "event"
    },
    {
      "anonymous": false,
      "inputs": [
        {
          "indexed": false,
          "internalType": "address",
          "name": "proxy",
          "type": "address"
        }
      ],
      "name": "SetAnyCallProxy",
      "type": "event"
    },
    {
      "anonymous": false,
      "inputs": [
        {
          "indexed": false,
          "internalType": "address",
          "name": "minter",
          "type": "address"
        }
      ],
      "name": "SetMinter",
      "type": "event"
    },
    {
      "anonymous": false,
      "inputs": [
        {
          "indexed": false,
          "internalType": "uint256[]",
          "name": "chainIDs",
          "type": "uint256[]"
        },
        {
          "indexed": false,
          "internalType": "address[]",
          "name": "peers",
          "type": "address[]"
        }
      ],
      "name": "SetPeers",
      "type": "event"
    },
    {
      "anonymous": false,
      "inputs": [
        {
          "indexed": true,
          "internalType": "address",
          "name": "from",
          "type": "address"
        },
        {
          "indexed": true,
          "internalType": "address",
          "name": "to",
          "type": "address"
        },
        {
          "indexed": true,
          "internalType": "uint256",
          "name": "tokenId",
          "type": "uint256"
        }
      ],
      "name": "Transfer",
      "type": "event"
    },
    {
      "inputs": [],
      "name": "MaxTokenIdId",
      "outputs": [
        {
          "internalType": "uint256",
          "name": "",
          "type": "uint256"
        }
      ],
      "stateMutability": "view",
      "type": "function"
    },
    {
      "inputs": [
        {
          "internalType": "uint256",
          "name": "tokenId",
          "type": "uint256"
        },
        {
          "internalType": "address",
          "name": "receiver",
          "type": "address"
        },
        {
          "internalType": "uint256",
          "name": "destChainID",
          "type": "uint256"
        }
      ],
      "name": "Swapout_no_fallback",
      "outputs": [
        {
          "internalType": "uint256",
          "name": "",
          "type": "uint256"
        }
      ],
      "stateMutability": "payable",
      "type": "function"
    },
    {
      "inputs": [],
      "name": "acceptAdmin",
      "outputs": [],
      "stateMutability": "nonpayable",
      "type": "function"
    },
    {
      "inputs": [],
      "name": "admin",
      "outputs": [
        {
          "internalType": "address",
          "name": "",
          "type": "address"
        }
      ],
      "stateMutability": "view",
      "type": "function"
    },
    {
      "inputs": [],
      "name": "anyCallProxy",
      "outputs": [
        {
          "internalType": "address",
          "name": "",
          "type": "address"
        }
      ],
      "stateMutability": "view",
      "type": "function"
    },
    {
      "inputs": [
        {
          "internalType": "bytes",
          "name": "data",
          "type": "bytes"
        }
      ],
      "name": "anyExecute",
      "outputs": [
        {
          "internalType": "bool",
          "name": "success",
          "type": "bool"
        },
        {
          "internalType": "bytes",
          "name": "result",
          "type": "bytes"
        }
      ],
      "stateMutability": "nonpayable",
      "type": "function"
    },
    {
      "inputs": [
        {
          "internalType": "address",
          "name": "to",
          "type": "address"
        },
        {
          "internalType": "uint256",
          "name": "tokenId",
          "type": "uint256"
        }
      ],
      "name": "approve",
      "outputs": [],
      "stateMutability": "nonpayable",
      "type": "function"
    },
    {
      "inputs": [
        {
          "internalType": "address",
          "name": "owner",
          "type": "address"
        }
      ],
      "name": "balanceOf",
      "outputs": [
        {
          "internalType": "uint256",
          "name": "",
          "type": "uint256"
        }
      ],
      "stateMutability": "view",
      "type": "function"
    },
    {
      "inputs": [],
      "name": "flag",
      "outputs": [
        {
          "internalType": "uint256",
          "name": "",
          "type": "uint256"
        }
      ],
      "stateMutability": "view",
      "type": "function"
    },
    {
      "inputs": [
        {
          "internalType": "uint256",
          "name": "",
          "type": "uint256"
        }
      ],
      "name": "generationOf",
      "outputs": [
        {
          "internalType": "uint256",
          "name": "",
          "type": "uint256"
        }
      ],
      "stateMutability": "view",
      "type": "function"
    },
    {
      "inputs": [
        {
          "internalType": "uint256",
          "name": "tokenId",
          "type": "uint256"
        }
      ],
      "name": "getApproved",
      "outputs": [
        {
          "internalType": "address",
          "name": "",
          "type": "address"
        }
      ],
      "stateMutability": "view",
      "type": "function"
    },
    {
      "inputs": [
        {
          "internalType": "uint256",
          "name": "foreignChainID",
          "type": "uint256"
        }
      ],
      "name": "getPeer",
      "outputs": [
        {
          "internalType": "address",
          "name": "",
          "type": "address"
        }
      ],
      "stateMutability": "view",
      "type": "function"
    },
    {
      "inputs": [
        {
          "internalType": "address",
          "name": "anyCallProxy",
          "type": "address"
        },
        {
          "internalType": "address",
          "name": "admin",
          "type": "address"
        }
      ],
      "name": "initialize",
      "outputs": [],
      "stateMutability": "nonpayable",
      "type": "function"
    },
    {
      "inputs": [
        {
          "internalType": "address",
          "name": "anyCallProxy_",
          "type": "address"
        },
        {
          "internalType": "uint256",
          "name": "flag_",
          "type": "uint256"
        }
      ],
      "name": "initiateAnyCallApp",
      "outputs": [],
      "stateMutability": "nonpayable",
      "type": "function"
    },
    {
      "inputs": [
        {
          "internalType": "address",
          "name": "owner",
          "type": "address"
        },
        {
          "internalType": "address",
          "name": "operator",
          "type": "address"
        }
      ],
      "name": "isApprovedForAll",
      "outputs": [
        {
          "internalType": "bool",
          "name": "",
          "type": "bool"
        }
      ],
      "stateMutability": "view",
      "type": "function"
    },
    {
      "inputs": [
        {
          "internalType": "address",
          "name": "to",
          "type": "address"
        }
      ],
      "name": "mint",
      "outputs": [],
      "stateMutability": "nonpayable",
      "type": "function"
    },
    {
      "inputs": [],
      "name": "minter",
      "outputs": [
        {
          "internalType": "address",
          "name": "",
          "type": "address"
        }
      ],
      "stateMutability": "view",
      "type": "function"
    },
    {
      "inputs": [],
      "name": "name",
      "outputs": [
        {
          "internalType": "string",
          "name": "",
          "type": "string"
        }
      ],
      "stateMutability": "view",
      "type": "function"
    },
    {
      "inputs": [],
      "name": "nextTokenId",
      "outputs": [
        {
          "internalType": "uint256",
          "name": "",
          "type": "uint256"
        }
      ],
      "stateMutability": "view",
      "type": "function"
    },
    {
      "inputs": [
        {
          "internalType": "uint256",
          "name": "tokenId",
          "type": "uint256"
        }
      ],
      "name": "ownerOf",
      "outputs": [
        {
          "internalType": "address",
          "name": "",
          "type": "address"
        }
      ],
      "stateMutability": "view",
      "type": "function"
    },
    {
      "inputs": [],
      "name": "pendingAdmin",
      "outputs": [
        {
          "internalType": "address",
          "name": "",
          "type": "address"
        }
      ],
      "stateMutability": "view",
      "type": "function"
    },
    {
      "inputs": [
        {
          "internalType": "address",
          "name": "from",
          "type": "address"
        },
        {
          "internalType": "address",
          "name": "to",
          "type": "address"
        },
        {
          "internalType": "uint256",
          "name": "tokenId",
          "type": "uint256"
        }
      ],
      "name": "safeTransferFrom",
      "outputs": [],
      "stateMutability": "nonpayable",
      "type": "function"
    },
    {
      "inputs": [
        {
          "internalType": "address",
          "name": "from",
          "type": "address"
        },
        {
          "internalType": "address",
          "name": "to",
          "type": "address"
        },
        {
          "internalType": "uint256",
          "name": "tokenId",
          "type": "uint256"
        },
        {
          "internalType": "bytes",
          "name": "data",
          "type": "bytes"
        }
      ],
      "name": "safeTransferFrom",
      "outputs": [],
      "stateMutability": "nonpayable",
      "type": "function"
    },
    {
      "inputs": [
        {
          "internalType": "address",
          "name": "proxy",
          "type": "address"
        }
      ],
      "name": "setAnyCallProxy",
      "outputs": [],
      "stateMutability": "nonpayable",
      "type": "function"
    },
    {
      "inputs": [
        {
          "internalType": "address",
          "name": "operator",
          "type": "address"
        },
        {
          "internalType": "bool",
          "name": "approved",
          "type": "bool"
        }
      ],
      "name": "setApprovalForAll",
      "outputs": [],
      "stateMutability": "nonpayable",
      "type": "function"
    },
    {
      "inputs": [
        {
          "internalType": "address",
          "name": "minter_",
          "type": "address"
        }
      ],
      "name": "setMinter",
      "outputs": [],
      "stateMutability": "nonpayable",
      "type": "function"
    },
    {
      "inputs": [
        {
          "internalType": "uint256[]",
          "name": "chainIDs",
          "type": "uint256[]"
        },
        {
          "internalType": "address[]",
          "name": "peers",
          "type": "address[]"
        }
      ],
      "name": "setPeers",
      "outputs": [],
      "stateMutability": "nonpayable",
      "type": "function"
    },
    {
      "inputs": [
        {
          "internalType": "bytes4",
          "name": "interfaceId",
          "type": "bytes4"
        }
      ],
      "name": "supportsInterface",
      "outputs": [
        {
          "internalType": "bool",
          "name": "",
          "type": "bool"
        }
      ],
      "stateMutability": "view",
      "type": "function"
    },
    {
      "inputs": [],
      "name": "swapoutSeq",
      "outputs": [
        {
          "internalType": "uint256",
          "name": "",
          "type": "uint256"
        }
      ],
      "stateMutability": "view",
      "type": "function"
    },
    {
      "inputs": [],
      "name": "symbol",
      "outputs": [
        {
          "internalType": "string",
          "name": "",
          "type": "string"
        }
      ],
      "stateMutability": "view",
      "type": "function"
    },
    {
      "inputs": [
        {
          "internalType": "uint256",
          "name": "index",
          "type": "uint256"
        }
      ],
      "name": "tokenByIndex",
      "outputs": [
        {
          "internalType": "uint256",
          "name": "",
          "type": "uint256"
        }
      ],
      "stateMutability": "view",
      "type": "function"
    },
    {
      "inputs": [
        {
          "internalType": "address",
          "name": "owner",
          "type": "address"
        },
        {
          "internalType": "uint256",
          "name": "index",
          "type": "uint256"
        }
      ],
      "name": "tokenOfOwnerByIndex",
      "outputs": [
        {
          "internalType": "uint256",
          "name": "",
          "type": "uint256"
        }
      ],
      "stateMutability": "view",
      "type": "function"
    },
    {
      "inputs": [
        {
          "internalType": "uint256",
          "name": "tokenId",
          "type": "uint256"
        }
      ],
      "name": "tokenURI",
      "outputs": [
        {
          "internalType": "string",
          "name": "",
          "type": "string"
        }
      ],
      "stateMutability": "view",
      "type": "function"
    },
    {
      "inputs": [],
      "name": "totalSupply",
      "outputs": [
        {
          "internalType": "uint256",
          "name": "",
          "type": "uint256"
        }
      ],
      "stateMutability": "view",
      "type": "function"
    },
    {
      "inputs": [
        {
          "internalType": "address",
          "name": "newAdmin",
          "type": "address"
        }
      ],
      "name": "transferAdmin",
      "outputs": [],
      "stateMutability": "nonpayable",
      "type": "function"
    },
    {
      "inputs": [
        {
          "internalType": "address",
          "name": "from",
          "type": "address"
        },
        {
          "internalType": "address",
          "name": "to",
          "type": "address"
        },
        {
          "internalType": "uint256",
          "name": "tokenId",
          "type": "uint256"
        }
      ],
      "name": "transferFrom",
      "outputs": [],
      "stateMutability": "nonpayable",
      "type": "function"
    }
  ],
  "bytecode": "0x6080604052600060ce60006101000a81548160ff021916908315150217905550600060d35534801561003057600080fd5b50614ae2806100406000396000f3fe60806040526004361061020f5760003560e01c806370a0823111610118578063b88d4fde116100a0578063e985e9c51161006f578063e985e9c5146107db578063f44a8afe14610818578063f851a44014610843578063fbf100721461086e578063fca3b5aa146108975761020f565b8063b88d4fde1461070f578063c0bdd63e14610738578063c87b56dd14610761578063e0bb12da1461079e5761020f565b806395d89b41116100e757806395d89b41146106225780639abaf4791461064d578063a22cb4651461068b578063a3d56457146106b4578063abdcf909146106df5761020f565b806370a082311461056657806375794a3c146105a357806375829def146105ce578063890eba68146105f75761020f565b8063267822471161019b578063485cc9551161016a578063485cc9551461045d5780634f6ccce7146104865780636352211e146104c357806367ebb6b2146105005780636a6278421461053d5761020f565b806326782247146103a35780632de2c8ad146103ce5780632f745c59146103f757806342842e0e146104345761020f565b8063095ea7b3116101e2578063095ea7b3146102e45780630e18b6811461030d57806318160ddd14610324578063197eebee1461034f57806323b872dd1461037a5761020f565b806301ffc9a71461021457806306fdde0314610251578063075461721461027c578063081812fc146102a7575b600080fd5b34801561022057600080fd5b5061023b6004803603810190610236919061318b565b6108c0565b60405161024891906131d3565b60405180910390f35b34801561025d57600080fd5b5061026661093a565b6040516102739190613287565b60405180910390f35b34801561028857600080fd5b506102916109cc565b60405161029e91906132ea565b60405180910390f35b3480156102b357600080fd5b506102ce60048036038101906102c9919061333b565b6109f2565b6040516102db91906132ea565b60405180910390f35b3480156102f057600080fd5b5061030b60048036038101906103069190613394565b610a38565b005b34801561031957600080fd5b50610322610b4f565b005b34801561033057600080fd5b50610339610ca9565b60405161034691906133e3565b60405180910390f35b34801561035b57600080fd5b50610364610cb6565b60405161037191906133e3565b60405180910390f35b34801561038657600080fd5b506103a1600480360381019061039c91906133fe565b610cbc565b005b3480156103af57600080fd5b506103b8610d1c565b6040516103c591906132ea565b60405180910390f35b3480156103da57600080fd5b506103f560048036038101906103f0919061365c565b610d42565b005b34801561040357600080fd5b5061041e60048036038101906104199190613394565b610e7f565b60405161042b91906133e3565b60405180910390f35b34801561044057600080fd5b5061045b600480360381019061045691906133fe565b610f24565b005b34801561046957600080fd5b50610484600480360381019061047f91906136d4565b610f44565b005b34801561049257600080fd5b506104ad60048036038101906104a8919061333b565b61110e565b6040516104ba91906133e3565b60405180910390f35b3480156104cf57600080fd5b506104ea60048036038101906104e5919061333b565b61117f565b6040516104f791906132ea565b60405180910390f35b34801561050c57600080fd5b506105276004803603810190610522919061333b565b611230565b60405161053491906132ea565b60405180910390f35b34801561054957600080fd5b50610564600480360381019061055f9190613714565b61126d565b005b34801561057257600080fd5b5061058d60048036038101906105889190613714565b611370565b60405161059a91906133e3565b60405180910390f35b3480156105af57600080fd5b506105b8611427565b6040516105c591906133e3565b60405180910390f35b3480156105da57600080fd5b506105f560048036038101906105f09190613714565b61142d565b005b34801561060357600080fd5b5061060c61152c565b60405161061991906133e3565b60405180910390f35b34801561062e57600080fd5b50610637611532565b6040516106449190613287565b60405180910390f35b34801561065957600080fd5b50610674600480360381019061066f919061379c565b6115c4565b60405161068292919061383e565b60405180910390f35b34801561069757600080fd5b506106b260048036038101906106ad919061389a565b611850565b005b3480156106c057600080fd5b506106c9611866565b6040516106d691906133e3565b60405180910390f35b6106f960048036038101906106f491906138da565b61186c565b60405161070691906133e3565b60405180910390f35b34801561071b57600080fd5b50610736600480360381019061073191906139e2565b61197c565b005b34801561074457600080fd5b5061075f600480360381019061075a9190613714565b6119de565b005b34801561076d57600080fd5b506107886004803603810190610783919061333b565b611ab3565b6040516107959190613287565b60405180910390f35b3480156107aa57600080fd5b506107c560048036038101906107c0919061333b565b611ad5565b6040516107d291906133e3565b60405180910390f35b3480156107e757600080fd5b5061080260048036038101906107fd91906136d4565b611aed565b60405161080f91906131d3565b60405180910390f35b34801561082457600080fd5b5061082d611b81565b60405161083a91906132ea565b60405180910390f35b34801561084f57600080fd5b50610858611ba7565b60405161086591906132ea565b60405180910390f35b34801561087a57600080fd5b5061089560048036038101906108909190613394565b611bcd565b005b3480156108a357600080fd5b506108be60048036038101906108b99190613714565b611c4e565b005b60007f780e9d63000000000000000000000000000000000000000000000000000000007bffffffffffffffffffffffffffffffffffffffffffffffffffffffff1916827bffffffffffffffffffffffffffffffffffffffffffffffffffffffff19161480610933575061093282611d45565b5b9050919050565b60606065805461094990613a94565b80601f016020809104026020016040519081016040528092919081815260200182805461097590613a94565b80156109c25780601f10610997576101008083540402835291602001916109c2565b820191906000526020600020905b8154815290600101906020018083116109a557829003601f168201915b5050505050905090565b60d160009054906101000a900473ffffffffffffffffffffffffffffffffffffffff1681565b60006109fd82611e27565b6069600083815260200190815260200160002060009054906101000a900473ffffffffffffffffffffffffffffffffffffffff169050919050565b6000610a438261117f565b90508073ffffffffffffffffffffffffffffffffffffffff168373ffffffffffffffffffffffffffffffffffffffff1603610ab3576040517f08c379a0000000000000000000000000000000000000000000000000000000008152600401610aaa90613b37565b60405180910390fd5b8073ffffffffffffffffffffffffffffffffffffffff16610ad2611e72565b73ffffffffffffffffffffffffffffffffffffffff161480610b015750610b0081610afb611e72565b611aed565b5b610b40576040517f08c379a0000000000000000000000000000000000000000000000000000000008152600401610b3790613bc9565b60405180910390fd5b610b4a8383611e7a565b505050565b60ca60009054906101000a900473ffffffffffffffffffffffffffffffffffffffff1673ffffffffffffffffffffffffffffffffffffffff163373ffffffffffffffffffffffffffffffffffffffff1614610ba957600080fd5b60ca60009054906101000a900473ffffffffffffffffffffffffffffffffffffffff1660c960006101000a81548173ffffffffffffffffffffffffffffffffffffffff021916908373ffffffffffffffffffffffffffffffffffffffff160217905550600060ca60006101000a81548173ffffffffffffffffffffffffffffffffffffffff021916908373ffffffffffffffffffffffffffffffffffffffff1602179055507f803a94fb89b71a5b6268fe4f2ebd6f3883e006a025caa59244b9db7b150cb16d60c960009054906101000a900473ffffffffffffffffffffffffffffffffffffffff16604051610c9f91906132ea565b60405180910390a1565b6000609980549050905090565b60d25481565b610ccd610cc7611e72565b82611f33565b610d0c576040517f08c379a0000000000000000000000000000000000000000000000000000000008152600401610d0390613c5b565b60405180910390fd5b610d17838383611fc8565b505050565b60ca60009054906101000a900473ffffffffffffffffffffffffffffffffffffffff1681565b60c960009054906101000a900473ffffffffffffffffffffffffffffffffffffffff1673ffffffffffffffffffffffffffffffffffffffff163373ffffffffffffffffffffffffffffffffffffffff1614610d9c57600080fd5b60005b8251811015610e7a57818181518110610dbb57610dba613c7b565b5b602002602001015160cd6000858481518110610dda57610dd9613c7b565b5b6020026020010151815260200190815260200160002060006101000a81548173ffffffffffffffffffffffffffffffffffffffff021916908373ffffffffffffffffffffffffffffffffffffffff1602179055507f78cbf7dbde8a3a1885fc6f780785a8001f6ed4b9969b08ddf732dcc307209e518383604051610e5f929190613e26565b60405180910390a18080610e7290613e8c565b915050610d9f565b505050565b6000610e8a83611370565b8210610ecb576040517f08c379a0000000000000000000000000000000000000000000000000000000008152600401610ec290613f46565b60405180910390fd5b609760008473ffffffffffffffffffffffffffffffffffffffff1673ffffffffffffffffffffffffffffffffffffffff168152602001908152602001600020600083815260200190815260200160002054905092915050565b610f3f8383836040518060200160405280600081525061197c565b505050565b60008060019054906101000a900460ff16159050808015610f755750600160008054906101000a900460ff1660ff16105b80610fa25750610f843061222e565b158015610fa15750600160008054906101000a900460ff1660ff16145b5b610fe1576040517f08c379a0000000000000000000000000000000000000000000000000000000008152600401610fd890613fd8565b60405180910390fd5b60016000806101000a81548160ff021916908360ff160217905550801561101e576001600060016101000a81548160ff0219169083151502179055505b6110926040518060400160405280601781526020017f4d756c7469636861696e5665727365204578706c6f72650000000000000000008152506040518060400160405280600381526020017f4d56450000000000000000000000000000000000000000000000000000000000815250612251565b61109d836002611bcd565b6110a6826122d2565b620f424060d28190555080156111095760008060016101000a81548160ff0219169083151502179055507f7f26b83ff96e1f2b6a682f133852f6798a09c465da95921460cefb38474024986001604051611100919061404a565b60405180910390a15b505050565b6000611118610ca9565b8210611159576040517f08c379a0000000000000000000000000000000000000000000000000000000008152600401611150906140d7565b60405180910390fd5b6099828154811061116d5761116c613c7b565b5b90600052602060002001549050919050565b6000806067600084815260200190815260200160002060009054906101000a900473ffffffffffffffffffffffffffffffffffffffff169050600073ffffffffffffffffffffffffffffffffffffffff168173ffffffffffffffffffffffffffffffffffffffff1603611227576040517f08c379a000000000000000000000000000000000000000000000000000000000815260040161121e90614143565b60405180910390fd5b80915050919050565b600060cd600083815260200190815260200160002060009054906101000a900473ffffffffffffffffffffffffffffffffffffffff169050919050565b60d160009054906101000a900473ffffffffffffffffffffffffffffffffffffffff1673ffffffffffffffffffffffffffffffffffffffff163373ffffffffffffffffffffffffffffffffffffffff16146112c757600080fd5b60d25460d054106112d757600080fd5b600060d05460d254466112ea9190614163565b6112f491906141bd565b9050611300828261234d565b600160cf600083815260200190815260200160002081905550600160d0600082825461132c91906141bd565b925050819055507f0f6798a560793a54c3bcfe86a93cde1e73087d944c0ea20544137d41213968858282604051611364929190614213565b60405180910390a15050565b60008073ffffffffffffffffffffffffffffffffffffffff168273ffffffffffffffffffffffffffffffffffffffff16036113e0576040517f08c379a00000000000000000000000000000000000000000000000000000000081526004016113d7906142ae565b60405180910390fd5b606860008373ffffffffffffffffffffffffffffffffffffffff1673ffffffffffffffffffffffffffffffffffffffff168152602001908152602001600020549050919050565b60d05481565b60c960009054906101000a900473ffffffffffffffffffffffffffffffffffffffff1673ffffffffffffffffffffffffffffffffffffffff163373ffffffffffffffffffffffffffffffffffffffff161461148757600080fd5b600060ca60009054906101000a900473ffffffffffffffffffffffffffffffffffffffff1690508160ca60006101000a81548173ffffffffffffffffffffffffffffffffffffffff021916908373ffffffffffffffffffffffffffffffffffffffff1602179055507f0ad836e1614da10ff391cfc802a39f547f3cdc42900fa72de16b085855c169d581836040516115209291906142ce565b60405180910390a15050565b60cb5481565b60606066805461154190613a94565b80601f016020809104026020016040519081016040528092919081815260200182805461156d90613a94565b80156115ba5780601f1061158f576101008083540402835291602001916115ba565b820191906000526020600020905b81548152906001019060200180831161159d57829003601f168201915b5050505050905090565b6000606060cc60009054906101000a900473ffffffffffffffffffffffffffffffffffffffff1673ffffffffffffffffffffffffffffffffffffffff1663c34c08e56040518163ffffffff1660e01b8152600401602060405180830381865afa158015611635573d6000803e3d6000fd5b505050506040513d601f19601f82011682018060405250810190611659919061430c565b73ffffffffffffffffffffffffffffffffffffffff163373ffffffffffffffffffffffffffffffffffffffff161461169057600080fd5b60008060cc60009054906101000a900473ffffffffffffffffffffffffffffffffffffffff1673ffffffffffffffffffffffffffffffffffffffff1663c34c08e56040518163ffffffff1660e01b8152600401602060405180830381865afa158015611700573d6000803e3d6000fd5b505050506040513d601f19601f82011682018060405250810190611724919061430c565b73ffffffffffffffffffffffffffffffffffffffff1663d0496d6a6040518163ffffffff1660e01b81526004016060604051808303816000875af1158015611770573d6000803e3d6000fd5b505050506040513d601f19601f82011682018060405250810190611794919061434e565b50915091508173ffffffffffffffffffffffffffffffffffffffff1660cd600083815260200190815260200160002060009054906101000a900473ffffffffffffffffffffffffffffffffffffffff1673ffffffffffffffffffffffffffffffffffffffff161461183a576040517f08c379a0000000000000000000000000000000000000000000000000000000008152600401611831906143ed565b60405180910390fd5b611845818787612526565b505050509250929050565b61186261185b611e72565b83836125d3565b5050565b60d35481565b60008060cf60008681526020019081526020016000205460405160200161189391906133e3565b60405160208183030381529060405290506118ad8561273f565b60d360008154809291906118c090613e8c565b9190505550600085338660d354856040516020016118e295949392919061440d565b604051602081830303815290604052905061193360cd600086815260200190815260200160002060009054906101000a900473ffffffffffffffffffffffffffffffffffffffff168260008761285c565b7f3434a824d70163fee9639bda8009849e0a8bfda3053fbace49ccc9f09bdc405986868660405161196693929190614467565b60405180910390a160d354925050509392505050565b61198d611987611e72565b83611f33565b6119cc576040517f08c379a00000000000000000000000000000000000000000000000000000000081526004016119c390613c5b565b60405180910390fd5b6119d8848484846129a1565b50505050565b60c960009054906101000a900473ffffffffffffffffffffffffffffffffffffffff1673ffffffffffffffffffffffffffffffffffffffff163373ffffffffffffffffffffffffffffffffffffffff1614611a3857600080fd5b8060cc60006101000a81548173ffffffffffffffffffffffffffffffffffffffff021916908373ffffffffffffffffffffffffffffffffffffffff1602179055507f34cac552498d00490be6d37e633695a163786c1b6ad4225948f60e2c654b037681604051611aa891906132ea565b60405180910390a150565b6060604051806060016040528060358152602001614a78603591399050919050565b60cf6020528060005260406000206000915090505481565b6000606a60008473ffffffffffffffffffffffffffffffffffffffff1673ffffffffffffffffffffffffffffffffffffffff16815260200190815260200160002060008373ffffffffffffffffffffffffffffffffffffffff1673ffffffffffffffffffffffffffffffffffffffff16815260200190815260200160002060009054906101000a900460ff16905092915050565b60cc60009054906101000a900473ffffffffffffffffffffffffffffffffffffffff1681565b60c960009054906101000a900473ffffffffffffffffffffffffffffffffffffffff1681565b60ce60009054906101000a900460ff1615611be757600080fd5b600160ce60006101000a81548160ff0219169083151502179055508160cc60006101000a81548173ffffffffffffffffffffffffffffffffffffffff021916908373ffffffffffffffffffffffffffffffffffffffff1602179055508060cb819055505050565b60c960009054906101000a900473ffffffffffffffffffffffffffffffffffffffff1673ffffffffffffffffffffffffffffffffffffffff163373ffffffffffffffffffffffffffffffffffffffff1614611ca857600080fd5b8060d160006101000a81548173ffffffffffffffffffffffffffffffffffffffff021916908373ffffffffffffffffffffffffffffffffffffffff1602179055507fcec52196e972044edde8689a1b608e459c5946b7f3e5c8cd3d6d8e126d422e1c60d160009054906101000a900473ffffffffffffffffffffffffffffffffffffffff16604051611d3a91906132ea565b60405180910390a150565b60007f80ac58cd000000000000000000000000000000000000000000000000000000007bffffffffffffffffffffffffffffffffffffffffffffffffffffffff1916827bffffffffffffffffffffffffffffffffffffffffffffffffffffffff19161480611e1057507f5b5e139f000000000000000000000000000000000000000000000000000000007bffffffffffffffffffffffffffffffffffffffffffffffffffffffff1916827bffffffffffffffffffffffffffffffffffffffffffffffffffffffff1916145b80611e205750611e1f826129fd565b5b9050919050565b611e3081612a67565b611e6f576040517f08c379a0000000000000000000000000000000000000000000000000000000008152600401611e6690614143565b60405180910390fd5b50565b600033905090565b816069600083815260200190815260200160002060006101000a81548173ffffffffffffffffffffffffffffffffffffffff021916908373ffffffffffffffffffffffffffffffffffffffff160217905550808273ffffffffffffffffffffffffffffffffffffffff16611eed8361117f565b73ffffffffffffffffffffffffffffffffffffffff167f8c5be1e5ebec7d5bd14f71427d1e84f3dd0314c0f7b2291e5b200ac8c7c3b92560405160405180910390a45050565b600080611f3f8361117f565b90508073ffffffffffffffffffffffffffffffffffffffff168473ffffffffffffffffffffffffffffffffffffffff161480611f815750611f808185611aed565b5b80611fbf57508373ffffffffffffffffffffffffffffffffffffffff16611fa7846109f2565b73ffffffffffffffffffffffffffffffffffffffff16145b91505092915050565b8273ffffffffffffffffffffffffffffffffffffffff16611fe88261117f565b73ffffffffffffffffffffffffffffffffffffffff161461203e576040517f08c379a000000000000000000000000000000000000000000000000000000000815260040161203590614510565b60405180910390fd5b600073ffffffffffffffffffffffffffffffffffffffff168273ffffffffffffffffffffffffffffffffffffffff16036120ad576040517f08c379a00000000000000000000000000000000000000000000000000000000081526004016120a4906145a2565b60405180910390fd5b6120b8838383612ad3565b6120c3600082611e7a565b6001606860008573ffffffffffffffffffffffffffffffffffffffff1673ffffffffffffffffffffffffffffffffffffffff168152602001908152602001600020600082825461211391906145c2565b925050819055506001606860008473ffffffffffffffffffffffffffffffffffffffff1673ffffffffffffffffffffffffffffffffffffffff168152602001908152602001600020600082825461216a91906141bd565b92505081905550816067600083815260200190815260200160002060006101000a81548173ffffffffffffffffffffffffffffffffffffffff021916908373ffffffffffffffffffffffffffffffffffffffff160217905550808273ffffffffffffffffffffffffffffffffffffffff168473ffffffffffffffffffffffffffffffffffffffff167fddf252ad1be2c89b69c2b068fc378daa952ba7f163c4a11628f55a4df523b3ef60405160405180910390a4612229838383612be5565b505050565b6000808273ffffffffffffffffffffffffffffffffffffffff163b119050919050565b600060019054906101000a900460ff166122a0576040517f08c379a000000000000000000000000000000000000000000000000000000000815260040161229790614668565b60405180910390fd5b81606590805190602001906122b692919061307c565b5080606690805190602001906122cd92919061307c565b505050565b8060c960006101000a81548173ffffffffffffffffffffffffffffffffffffffff021916908373ffffffffffffffffffffffffffffffffffffffff1602179055507fd9be138201bddb701e32a38e3dff605053c22b8f66e2a46b7f3aec9091f5a4148160405161234291906132ea565b60405180910390a150565b600073ffffffffffffffffffffffffffffffffffffffff168273ffffffffffffffffffffffffffffffffffffffff16036123bc576040517f08c379a00000000000000000000000000000000000000000000000000000000081526004016123b3906146d4565b60405180910390fd5b6123c581612a67565b15612405576040517f08c379a00000000000000000000000000000000000000000000000000000000081526004016123fc90614740565b60405180910390fd5b61241160008383612ad3565b6001606860008473ffffffffffffffffffffffffffffffffffffffff1673ffffffffffffffffffffffffffffffffffffffff168152602001908152602001600020600082825461246191906141bd565b92505081905550816067600083815260200190815260200160002060006101000a81548173ffffffffffffffffffffffffffffffffffffffff021916908373ffffffffffffffffffffffffffffffffffffffff160217905550808273ffffffffffffffffffffffffffffffffffffffff16600073ffffffffffffffffffffffffffffffffffffffff167fddf252ad1be2c89b69c2b068fc378daa952ba7f163c4a11628f55a4df523b3ef60405160405180910390a461252260008383612be5565b5050565b600060606000806000868681019061253e919061479e565b945050935050925060008180602001905181019061255c9190614835565b9050612568838561234d565b60018161257591906141bd565b60cf6000868152602001908152602001600020819055507fd756f6e7c7608da8ed840dd4c1d2b5aa390bdcedf11b9d316aa6977c1753fb8284848b6040516125bf93929190614467565b60405180910390a150505050935093915050565b8173ffffffffffffffffffffffffffffffffffffffff168373ffffffffffffffffffffffffffffffffffffffff1603612641576040517f08c379a0000000000000000000000000000000000000000000000000000000008152600401612638906148ae565b60405180910390fd5b80606a60008573ffffffffffffffffffffffffffffffffffffffff1673ffffffffffffffffffffffffffffffffffffffff16815260200190815260200160002060008473ffffffffffffffffffffffffffffffffffffffff1673ffffffffffffffffffffffffffffffffffffffff16815260200190815260200160002060006101000a81548160ff0219169083151502179055508173ffffffffffffffffffffffffffffffffffffffff168373ffffffffffffffffffffffffffffffffffffffff167f17307eab39ab6107e8899845ad3d59bd9653f200f220920489ca2b5937696c318360405161273291906131d3565b60405180910390a3505050565b600061274a8261117f565b905061275881600084612ad3565b612763600083611e7a565b6001606860008373ffffffffffffffffffffffffffffffffffffffff1673ffffffffffffffffffffffffffffffffffffffff16815260200190815260200160002060008282546127b391906145c2565b925050819055506067600083815260200190815260200160002060006101000a81549073ffffffffffffffffffffffffffffffffffffffff021916905581600073ffffffffffffffffffffffffffffffffffffffff168273ffffffffffffffffffffffffffffffffffffffff167fddf252ad1be2c89b69c2b068fc378daa952ba7f163c4a11628f55a4df523b3ef60405160405180910390a461285881600084612be5565b5050565b600260cb54036129035760cc60009054906101000a900473ffffffffffffffffffffffffffffffffffffffff1673ffffffffffffffffffffffffffffffffffffffff1663bd45c4e7348686868660cb546040518763ffffffff1660e01b81526004016128cc9594939291906148ce565b6000604051808303818588803b1580156128e557600080fd5b505af11580156128f9573d6000803e3d6000fd5b505050505061299b565b60cc60009054906101000a900473ffffffffffffffffffffffffffffffffffffffff1673ffffffffffffffffffffffffffffffffffffffff1663bd45c4e78585858560cb546040518663ffffffff1660e01b81526004016129689594939291906148ce565b600060405180830381600087803b15801561298257600080fd5b505af1158015612996573d6000803e3d6000fd5b505050505b50505050565b6129ac848484611fc8565b6129b884848484612bea565b6129f7576040517f08c379a00000000000000000000000000000000000000000000000000000000081526004016129ee9061499a565b60405180910390fd5b50505050565b60007f01ffc9a7000000000000000000000000000000000000000000000000000000007bffffffffffffffffffffffffffffffffffffffffffffffffffffffff1916827bffffffffffffffffffffffffffffffffffffffffffffffffffffffff1916149050919050565b60008073ffffffffffffffffffffffffffffffffffffffff166067600084815260200190815260200160002060009054906101000a900473ffffffffffffffffffffffffffffffffffffffff1673ffffffffffffffffffffffffffffffffffffffff1614159050919050565b612ade838383612d71565b600073ffffffffffffffffffffffffffffffffffffffff168373ffffffffffffffffffffffffffffffffffffffff1603612b2057612b1b81612d76565b612b5f565b8173ffffffffffffffffffffffffffffffffffffffff168373ffffffffffffffffffffffffffffffffffffffff1614612b5e57612b5d8382612dbf565b5b5b600073ffffffffffffffffffffffffffffffffffffffff168273ffffffffffffffffffffffffffffffffffffffff1603612ba157612b9c81612f2c565b612be0565b8273ffffffffffffffffffffffffffffffffffffffff168273ffffffffffffffffffffffffffffffffffffffff1614612bdf57612bde8282612ffd565b5b5b505050565b505050565b6000612c0b8473ffffffffffffffffffffffffffffffffffffffff1661222e565b15612d64578373ffffffffffffffffffffffffffffffffffffffff1663150b7a02612c34611e72565b8786866040518563ffffffff1660e01b8152600401612c5694939291906149ba565b6020604051808303816000875af1925050508015612c9257506040513d601f19601f82011682018060405250810190612c8f9190614a1b565b60015b612d14573d8060008114612cc2576040519150601f19603f3d011682016040523d82523d6000602084013e612cc7565b606091505b506000815103612d0c576040517f08c379a0000000000000000000000000000000000000000000000000000000008152600401612d039061499a565b60405180910390fd5b805181602001fd5b63150b7a0260e01b7bffffffffffffffffffffffffffffffffffffffffffffffffffffffff1916817bffffffffffffffffffffffffffffffffffffffffffffffffffffffff191614915050612d69565b600190505b949350505050565b505050565b609980549050609a600083815260200190815260200160002081905550609981908060018154018082558091505060019003906000526020600020016000909190919091505550565b60006001612dcc84611370565b612dd691906145c2565b9050600060986000848152602001908152602001600020549050818114612ebb576000609760008673ffffffffffffffffffffffffffffffffffffffff1673ffffffffffffffffffffffffffffffffffffffff168152602001908152602001600020600084815260200190815260200160002054905080609760008773ffffffffffffffffffffffffffffffffffffffff1673ffffffffffffffffffffffffffffffffffffffff168152602001908152602001600020600084815260200190815260200160002081905550816098600083815260200190815260200160002081905550505b6098600084815260200190815260200160002060009055609760008573ffffffffffffffffffffffffffffffffffffffff1673ffffffffffffffffffffffffffffffffffffffff16815260200190815260200160002060008381526020019081526020016000206000905550505050565b60006001609980549050612f4091906145c2565b90506000609a6000848152602001908152602001600020549050600060998381548110612f7057612f6f613c7b565b5b906000526020600020015490508060998381548110612f9257612f91613c7b565b5b906000526020600020018190555081609a600083815260200190815260200160002081905550609a6000858152602001908152602001600020600090556099805480612fe157612fe0614a48565b5b6001900381819060005260206000200160009055905550505050565b600061300883611370565b905081609760008573ffffffffffffffffffffffffffffffffffffffff1673ffffffffffffffffffffffffffffffffffffffff168152602001908152602001600020600083815260200190815260200160002081905550806098600084815260200190815260200160002081905550505050565b82805461308890613a94565b90600052602060002090601f0160209004810192826130aa57600085556130f1565b82601f106130c357805160ff19168380011785556130f1565b828001600101855582156130f1579182015b828111156130f05782518255916020019190600101906130d5565b5b5090506130fe9190613102565b5090565b5b8082111561311b576000816000905550600101613103565b5090565b6000604051905090565b600080fd5b600080fd5b60007fffffffff0000000000000000000000000000000000000000000000000000000082169050919050565b61316881613133565b811461317357600080fd5b50565b6000813590506131858161315f565b92915050565b6000602082840312156131a1576131a0613129565b5b60006131af84828501613176565b91505092915050565b60008115159050919050565b6131cd816131b8565b82525050565b60006020820190506131e860008301846131c4565b92915050565b600081519050919050565b600082825260208201905092915050565b60005b8381101561322857808201518184015260208101905061320d565b83811115613237576000848401525b50505050565b6000601f19601f8301169050919050565b6000613259826131ee565b61326381856131f9565b935061327381856020860161320a565b61327c8161323d565b840191505092915050565b600060208201905081810360008301526132a1818461324e565b905092915050565b600073ffffffffffffffffffffffffffffffffffffffff82169050919050565b60006132d4826132a9565b9050919050565b6132e4816132c9565b82525050565b60006020820190506132ff60008301846132db565b92915050565b6000819050919050565b61331881613305565b811461332357600080fd5b50565b6000813590506133358161330f565b92915050565b60006020828403121561335157613350613129565b5b600061335f84828501613326565b91505092915050565b613371816132c9565b811461337c57600080fd5b50565b60008135905061338e81613368565b92915050565b600080604083850312156133ab576133aa613129565b5b60006133b98582860161337f565b92505060206133ca85828601613326565b9150509250929050565b6133dd81613305565b82525050565b60006020820190506133f860008301846133d4565b92915050565b60008060006060848603121561341757613416613129565b5b60006134258682870161337f565b93505060206134368682870161337f565b925050604061344786828701613326565b9150509250925092565b600080fd5b7f4e487b7100000000000000000000000000000000000000000000000000000000600052604160045260246000fd5b61348e8261323d565b810181811067ffffffffffffffff821117156134ad576134ac613456565b5b80604052505050565b60006134c061311f565b90506134cc8282613485565b919050565b600067ffffffffffffffff8211156134ec576134eb613456565b5b602082029050602081019050919050565b600080fd5b6000613515613510846134d1565b6134b6565b90508083825260208201905060208402830185811115613538576135376134fd565b5b835b81811015613561578061354d8882613326565b84526020840193505060208101905061353a565b5050509392505050565b600082601f8301126135805761357f613451565b5b8135613590848260208601613502565b91505092915050565b600067ffffffffffffffff8211156135b4576135b3613456565b5b602082029050602081019050919050565b60006135d86135d384613599565b6134b6565b905080838252602082019050602084028301858111156135fb576135fa6134fd565b5b835b818110156136245780613610888261337f565b8452602084019350506020810190506135fd565b5050509392505050565b600082601f83011261364357613642613451565b5b81356136538482602086016135c5565b91505092915050565b6000806040838503121561367357613672613129565b5b600083013567ffffffffffffffff8111156136915761369061312e565b5b61369d8582860161356b565b925050602083013567ffffffffffffffff8111156136be576136bd61312e565b5b6136ca8582860161362e565b9150509250929050565b600080604083850312156136eb576136ea613129565b5b60006136f98582860161337f565b925050602061370a8582860161337f565b9150509250929050565b60006020828403121561372a57613729613129565b5b60006137388482850161337f565b91505092915050565b600080fd5b60008083601f84011261375c5761375b613451565b5b8235905067ffffffffffffffff81111561377957613778613741565b5b602083019150836001820283011115613795576137946134fd565b5b9250929050565b600080602083850312156137b3576137b2613129565b5b600083013567ffffffffffffffff8111156137d1576137d061312e565b5b6137dd85828601613746565b92509250509250929050565b600081519050919050565b600082825260208201905092915050565b6000613810826137e9565b61381a81856137f4565b935061382a81856020860161320a565b6138338161323d565b840191505092915050565b600060408201905061385360008301856131c4565b81810360208301526138658184613805565b90509392505050565b613877816131b8565b811461388257600080fd5b50565b6000813590506138948161386e565b92915050565b600080604083850312156138b1576138b0613129565b5b60006138bf8582860161337f565b92505060206138d085828601613885565b9150509250929050565b6000806000606084860312156138f3576138f2613129565b5b600061390186828701613326565b93505060206139128682870161337f565b925050604061392386828701613326565b9150509250925092565b600080fd5b600067ffffffffffffffff82111561394d5761394c613456565b5b6139568261323d565b9050602081019050919050565b82818337600083830152505050565b600061398561398084613932565b6134b6565b9050828152602081018484840111156139a1576139a061392d565b5b6139ac848285613963565b509392505050565b600082601f8301126139c9576139c8613451565b5b81356139d9848260208601613972565b91505092915050565b600080600080608085870312156139fc576139fb613129565b5b6000613a0a8782880161337f565b9450506020613a1b8782880161337f565b9350506040613a2c87828801613326565b925050606085013567ffffffffffffffff811115613a4d57613a4c61312e565b5b613a59878288016139b4565b91505092959194509250565b7f4e487b7100000000000000000000000000000000000000000000000000000000600052602260045260246000fd5b60006002820490506001821680613aac57607f821691505b602082108103613abf57613abe613a65565b5b50919050565b7f4552433732313a20617070726f76616c20746f2063757272656e74206f776e6560008201527f7200000000000000000000000000000000000000000000000000000000000000602082015250565b6000613b216021836131f9565b9150613b2c82613ac5565b604082019050919050565b60006020820190508181036000830152613b5081613b14565b9050919050565b7f4552433732313a20617070726f76652063616c6c6572206973206e6f7420746f60008201527f6b656e206f776e6572206e6f7220617070726f76656420666f7220616c6c0000602082015250565b6000613bb3603e836131f9565b9150613bbe82613b57565b604082019050919050565b60006020820190508181036000830152613be281613ba6565b9050919050565b7f4552433732313a2063616c6c6572206973206e6f7420746f6b656e206f776e6560008201527f72206e6f7220617070726f766564000000000000000000000000000000000000602082015250565b6000613c45602e836131f9565b9150613c5082613be9565b604082019050919050565b60006020820190508181036000830152613c7481613c38565b9050919050565b7f4e487b7100000000000000000000000000000000000000000000000000000000600052603260045260246000fd5b600081519050919050565b600082825260208201905092915050565b6000819050602082019050919050565b613cdf81613305565b82525050565b6000613cf18383613cd6565b60208301905092915050565b6000602082019050919050565b6000613d1582613caa565b613d1f8185613cb5565b9350613d2a83613cc6565b8060005b83811015613d5b578151613d428882613ce5565b9750613d4d83613cfd565b925050600181019050613d2e565b5085935050505092915050565b600081519050919050565b600082825260208201905092915050565b6000819050602082019050919050565b613d9d816132c9565b82525050565b6000613daf8383613d94565b60208301905092915050565b6000602082019050919050565b6000613dd382613d68565b613ddd8185613d73565b9350613de883613d84565b8060005b83811015613e19578151613e008882613da3565b9750613e0b83613dbb565b925050600181019050613dec565b5085935050505092915050565b60006040820190508181036000830152613e408185613d0a565b90508181036020830152613e548184613dc8565b90509392505050565b7f4e487b7100000000000000000000000000000000000000000000000000000000600052601160045260246000fd5b6000613e9782613305565b91507fffffffffffffffffffffffffffffffffffffffffffffffffffffffffffffffff8203613ec957613ec8613e5d565b5b600182019050919050565b7f455243373231456e756d657261626c653a206f776e657220696e646578206f7560008201527f74206f6620626f756e6473000000000000000000000000000000000000000000602082015250565b6000613f30602b836131f9565b9150613f3b82613ed4565b604082019050919050565b60006020820190508181036000830152613f5f81613f23565b9050919050565b7f496e697469616c697a61626c653a20636f6e747261637420697320616c72656160008201527f647920696e697469616c697a6564000000000000000000000000000000000000602082015250565b6000613fc2602e836131f9565b9150613fcd82613f66565b604082019050919050565b60006020820190508181036000830152613ff181613fb5565b9050919050565b6000819050919050565b600060ff82169050919050565b6000819050919050565b600061403461402f61402a84613ff8565b61400f565b614002565b9050919050565b61404481614019565b82525050565b600060208201905061405f600083018461403b565b92915050565b7f455243373231456e756d657261626c653a20676c6f62616c20696e646578206f60008201527f7574206f6620626f756e64730000000000000000000000000000000000000000602082015250565b60006140c1602c836131f9565b91506140cc82614065565b604082019050919050565b600060208201905081810360008301526140f0816140b4565b9050919050565b7f4552433732313a20696e76616c696420746f6b656e2049440000000000000000600082015250565b600061412d6018836131f9565b9150614138826140f7565b602082019050919050565b6000602082019050818103600083015261415c81614120565b9050919050565b600061416e82613305565b915061417983613305565b9250817fffffffffffffffffffffffffffffffffffffffffffffffffffffffffffffffff04831182151516156141b2576141b1613e5d565b5b828202905092915050565b60006141c882613305565b91506141d383613305565b9250827fffffffffffffffffffffffffffffffffffffffffffffffffffffffffffffffff0382111561420857614207613e5d565b5b828201905092915050565b600060408201905061422860008301856132db565b61423560208301846133d4565b9392505050565b7f4552433732313a2061646472657373207a65726f206973206e6f74206120766160008201527f6c6964206f776e65720000000000000000000000000000000000000000000000602082015250565b60006142986029836131f9565b91506142a38261423c565b604082019050919050565b600060208201905081810360008301526142c78161428b565b9050919050565b60006040820190506142e360008301856132db565b6142f060208301846132db565b9392505050565b60008151905061430681613368565b92915050565b60006020828403121561432257614321613129565b5b6000614330848285016142f7565b91505092915050565b6000815190506143488161330f565b92915050565b60008060006060848603121561436757614366613129565b5b6000614375868287016142f7565b935050602061438686828701614339565b925050604061439786828701614339565b9150509250925092565b7f63616c6c206e6f7420616c6c6f77656400000000000000000000000000000000600082015250565b60006143d76010836131f9565b91506143e2826143a1565b602082019050919050565b60006020820190508181036000830152614406816143ca565b9050919050565b600060a08201905061442260008301886133d4565b61442f60208301876132db565b61443c60408301866132db565b61444960608301856133d4565b818103608083015261445b8184613805565b90509695505050505050565b600060608201905061447c60008301866133d4565b61448960208301856132db565b61449660408301846133d4565b949350505050565b7f4552433732313a207472616e736665722066726f6d20696e636f72726563742060008201527f6f776e6572000000000000000000000000000000000000000000000000000000602082015250565b60006144fa6025836131f9565b91506145058261449e565b604082019050919050565b60006020820190508181036000830152614529816144ed565b9050919050565b7f4552433732313a207472616e7366657220746f20746865207a65726f2061646460008201527f7265737300000000000000000000000000000000000000000000000000000000602082015250565b600061458c6024836131f9565b915061459782614530565b604082019050919050565b600060208201905081810360008301526145bb8161457f565b9050919050565b60006145cd82613305565b91506145d883613305565b9250828210156145eb576145ea613e5d565b5b828203905092915050565b7f496e697469616c697a61626c653a20636f6e7472616374206973206e6f74206960008201527f6e697469616c697a696e67000000000000000000000000000000000000000000602082015250565b6000614652602b836131f9565b915061465d826145f6565b604082019050919050565b6000602082019050818103600083015261468181614645565b9050919050565b7f4552433732313a206d696e7420746f20746865207a65726f2061646472657373600082015250565b60006146be6020836131f9565b91506146c982614688565b602082019050919050565b600060208201905081810360008301526146ed816146b1565b9050919050565b7f4552433732313a20746f6b656e20616c7265616479206d696e74656400000000600082015250565b600061472a601c836131f9565b9150614735826146f4565b602082019050919050565b600060208201905081810360008301526147598161471d565b9050919050565b600061476b826132a9565b9050919050565b61477b81614760565b811461478657600080fd5b50565b60008135905061479881614772565b92915050565b600080600080600060a086880312156147ba576147b9613129565b5b60006147c888828901613326565b95505060206147d988828901614789565b94505060406147ea88828901614789565b93505060606147fb88828901613326565b925050608086013567ffffffffffffffff81111561481c5761481b61312e565b5b614828888289016139b4565b9150509295509295909350565b60006020828403121561484b5761484a613129565b5b600061485984828501614339565b91505092915050565b7f4552433732313a20617070726f766520746f2063616c6c657200000000000000600082015250565b60006148986019836131f9565b91506148a382614862565b602082019050919050565b600060208201905081810360008301526148c78161488b565b9050919050565b600060a0820190506148e360008301886132db565b81810360208301526148f58187613805565b905061490460408301866132db565b61491160608301856133d4565b61491e60808301846133d4565b9695505050505050565b7f4552433732313a207472616e7366657220746f206e6f6e20455243373231526560008201527f63656976657220696d706c656d656e7465720000000000000000000000000000602082015250565b60006149846032836131f9565b915061498f82614928565b604082019050919050565b600060208201905081810360008301526149b381614977565b9050919050565b60006080820190506149cf60008301876132db565b6149dc60208301866132db565b6149e960408301856133d4565b81810360608301526149fb8184613805565b905095945050505050565b600081519050614a158161315f565b92915050565b600060208284031215614a3157614a30613129565b5b6000614a3f84828501614a06565b91505092915050565b7f4e487b7100000000000000000000000000000000000000000000000000000000600052603160045260246000fdfe697066733a2f2f516d5273517a6d36396970424d654559424162584432745354694b62315268384344416e7269524d387a45586758a26469706673582212201d938efe6abe753e2a14e6bc147a0d55922ee3a8c1da2fefff8ec403ce0ee41564736f6c634300080e0033",
  "linkReferences": {},
  "deployedLinkReferences": {}
}